:020000040800F2
:1000000090060020010100084116000815100008A4
:100010003D160008C90900089529000800000000E5
:10002000000000000000000000000000391F000870
:100030008D0B0008000000008D1A00084523000801
:100040001B0100081B0100081B0100081B01000820
:100050001B0100081B0100081B0100081B01000810
:100060001B0100081B0100081B0100081B01000800
:100070001B0100081B0100081B0100081B010008F0
:100080001B0100081B0100081B0100081B010008E0
:100090001B0100081B0100081B0100081B010008D0
:1000A0001B010008F52300081B0100081B010008C4
:1000B000E9240008012500081B0100081B010008B5
:1000C0001B0100081B0100081B0100081B010008A0
:1000D0001B0100086D2600081B010008F12600081E
:1000E0001B0100081B0100081B010008DFF80CD0F1
:1000F00000F0EAFB00480047E135000890060020C8
:100100000648804706480047FEE7FEE7FEE7FEE7B1
:10011000FEE7FEE7FEE7FEE7FEE7FEE7492300080D
:10012000ED000008F0B480EA0102D40F4200B2EB07
:10013000410F02D20246084611464A0042D0C30D82
:10014000DDB2C1F3C752AD1A202D35DAC1F3160165
:1001500041F4000204B15242C5F1200602FA06F150
:100160002A411044B3EBD05F23D0C4B1012DA0EBE2
:10017000C35009DCF0BC4FF0004202EAC352DBB2CC
:1001800000F5000000F000BB400000F1807000EBC3
:10019000C350A0F1807040EAD170490009E04908DD
:1001A00041EAC071A0EBC35000F50000400800EB2D
:1001B000C350F0BC00F0DFBA6142012202EB410102
:1001C000001BF6E7F0BC704781F00041AAE780F021
:1001D0000040A7E780EA010210B502F000434000AA
:1001E00022D04A001FD0010E01EB1261C0F356006D
:1001F000C2F3560240F4000042F40002A0FB0220C9
:1002000000047F39140400D0401C50EA124001D48D
:100210004000491EC2B20C0604EBD010401C40083E
:10022000802A02D003E0002010BD20F00100002948
:1002300000DA0020184310BD30B480EA010202F059
:10024000004530F0004221F0004013D090B1C30DC2
:10025000D40DC2F31601C0F31600E41A41F40001F4
:1002600040F400027D34914201D3641C00E0490057
:10027000002C02DA30BC002070474FF4000000234D
:10028000914201D3891A034340084FEA4101F7D153
:1002900051B1914202D14FF0004105E002D24FF03E
:1002A000010101E06FF0010103EBC450284430BCB0
:1002B00000F061BA2DE9FE4F804681EA0300C00FCD
:1002C0000C46009021F0004123F00045B8EB0200FD
:1002D000A94105D24046214690461C460B4602469F
:1002E00023F00040104347D0270DC7F30A00C3F3A3
:1002F0000A510290401A019040286BDAC3F31300B0
:1003000040F4801B0098924620B10023D2EB030AF0
:1003100063EB0B0B01985946C0F14002504600F0C8
:10032000F9F906460D4650465946019A00F011FA71
:1003300010EB08006141002487EA115284EAE77358
:100340001A4340D0009A62B3019A012A4FEA075239
:1003500015DC001B61EB02014FF0004202EA07527C
:10036000CDE90042001C41F5801132462B4600F0D9
:1003700046FA03B0BDE8F08F40462146F9E7001B7E
:1003800061EB0201001C41F5801300185B4120184D
:10039000A2F5001747EB030140EAD570B6196D418D
:1003A00011E06D084FEA360645EAC0754FEA07527C
:1003B000001B61EB0201001C41F5801149084FEA66
:1003C00030000019514132462B4603B0BDE8F04FD2
:1003D00000F008BA0098012240000023D0EB02028E
:1003E00063EBE073009821464FEAE074B8EB00003D
:1003F00061EB0401E9E783F000435BE781F0004132
:1004000058E72DE9FE4F81EA030404F0004421F08F
:10041000004100944FF0000B23F0004350EA010428
:100420005ED052EA03045BD0C3F30A54C1F30A5509
:100430002C44A4F2F3340194A0FB0254C1F3130141
:1004400041F48011C3F3130343F4801301FB02440E
:1004500000FB034E840A970A44EA815447EA835713
:10046000A4FB076802958D0A05FB07854FEA932CCC
:1004700004FB0C542705029D4FEA065847EA16373D
:10048000B5EB08056EEB070C870E920E47EA811755
:1004900042EA8312A7FB0201B6EB0B0164EB0004F6
:1004A0002B0D43EA0C335E1844EB1C50DA465146E0
:1004B000E7FB0201C5F313044FEA0B3343EA14537D
:1004C0004FEA0432019C43EA0603A4F10C040294AF
:1004D000009CCDE900B400F092F903B0BDE8F08FC4
:1004E00000200146F9E72DE9F04D81EA030404F00C
:1004F000004B21F0004514464FF0000A23F0004164
:1005000050EA050220D054EA01021DD0C5F30A5773
:100510000246C5F31303C1F31300C1F30A5640F4B6
:10052000801543F48013A7EB0608101BD64608F28B
:10053000FD3873EB050002D308F1010801E09218C1
:100540005B41B8F1000F03DA00200146BDE8F08DF1
:1005500000204FF48011064684460EE0171B73EB13
:10056000050705D3121B63EB050306434CEA010C98
:1005700049084FEA300092185B4150EA0107EDD17B
:1005800052EA030012D082EA040083EA050108431C
:1005900005D0101BAB4106D20122002306E0002249
:1005A0004FF0004302E06FF0010253101AEB060017
:1005B0004CEB085110EB0A0041EB0B01BDE8F04D8C
:1005C00000F010B9C10F80EAE0700844CA07962312
:1005D000002100F0D9B896230022114600F0D4B8CB
:1005E00000F0004220F00040C10DC0F3160040F4BE
:1005F00000007F2901DA00207047962903DCC1F151
:100600009601C84001E096398840002AF4D0404263
:10061000704720F00040C10DC0F3160040F4000008
:100620007F2901DA00207047962903DCC1F1960189
:10063000C840704796398840704700F0004230F05B
:1006400000400AD0C10D01F56071C0F3160042EA06
:100650000151C2084007114370470020014670470E
:1006600030B5002904DB4FF00044404264EB010147
:10067000002B04DB4FF00044524264EB03038B4237
:1006800008BF824230BD000001F0004330B421F0C9
:10069000004150EA010206D00A0DA2F56072C1F3D2
:1006A0001301002A02DC30BC00207047440F44EAEA
:1006B000C104C100E01830BC00EBC25000F05BB8D0
:1006C000002801DBC0F10040002901DBC1F100413D
:1006D00081427047002801DBC0F10040002901DBA6
:1006E000C1F100418842704730B50B4601460020F9
:1006F0002022012409E021FA02F59D4205D303FAE4
:1007000002F5491B04FA02F52844151EA2F1010264
:10071000F1DC30BD202A04DB203A00FA02F100208F
:1007200070479140C2F1200320FA03F3194390402F
:100730007047202A04DB203A21FA02F0002170479A
:1007400021FA02F3D040C2F1200291400843194639
:100750007047202A06DBCB17203A41FA02F043EA21
:10076000E07306E041FA02F3D040C2F1200291406A
:100770000843194670470029A8BF7047401C49002C
:1007800008BF20F00100704710B4B0FA80FC00FAF6
:100790000CF050EA010404BF10BC704749B1CCF121
:1007A000200421FA04F411FA0CF118BF01212143AD
:1007B0000843A3EB0C01CB1D4FEA00614FEA102068
:1007C00042BF002010BC704700EBC350104400290A
:1007D000A4BF10BC7047401C490008BF20F00100B6
:1007E00010BC704710B5002B08DA401C41F1000125
:1007F00092185B411A4301D120F0010010BD2DE990
:10080000F04D92469B4611B1B1FA81F202E0B0FA86
:1008100080F220329046FFF77DFF04460F4640EA03
:100820000A0041EA0B0153465A46084313D01146C9
:1008300053EA010019D0C8F140025046FFF779FF92
:1008400005460E46504659464246FFF763FF0843A9
:1008500005D0012004E020463946BDE8F08D002097
:10086000054346EAE0762C4337430A986305E40AD9
:10087000A0EB08000022FD0A44EA47540A3002D5E2
:1008800000200146E9E7010510196941DDE9084545
:1008900000196941BDE8F04DA4E770B521F00043AF
:1008A00003430CD0C1F30A550024D5EB040564EBD7
:1008B0000403D617AD1AB34102DB0020014670BD18
:1008C000201841EB025170BD064C074D06E0E06870
:1008D00040F0010394E8070098471034AC42F6D387
:1008E000FFF708FCE0490008004A00082DE9F04D38
:1008F00000231A461B1A8A4103DB00200146BDE88B
:10090000F08DC1F30A52C1F3130141F480154FF089
:10091000000BD10702D100186D41521E002704467A
:1009200040F2FF11384601EB620A3E46804602461D
:1009300000204FF48011FFF7FCFEC2197141BB1873
:1009400046EB0100B4EB030C75EB000C04D3E41A86
:1009500065EB000517460E46241908F101006D41AC
:1009600080463428E3DDF91946EB0600091BA8414F
:1009700003D24FF0FF32134601E0002213461BEB77
:10098000070046EB0A51BDE8F04DFFF72BBF30B52D
:100990008C1810F8012B12F00F0301D110F8013B55
:1009A000120906D110F8012B03E010F8015B01F8E1
:1009B000015B5B1EF9D101E001F8013B521EFBD146
:1009C000A142E6D3002030BD00BFFEE710B50121F3
:1009D0001848006800F088F802211748006800F005
:1009E00083F803211548006800F07EF8032000F02A
:1009F0002FF81349087000201249087012E000BF58
:100A00001148008800F040000028F9D00F480D4937
:100A10000978405C0C49091D08800A480078401C90
:100A20000849087007480078054909788842E6DBDC
:100A300010BD00005001002064010020F4000020DF
:100A4000F1000020F0000020003801407801002073
:100A500001460A2900DC09B9002070472420214AF8
:100A600010700B293CD2DFE801F03B060B10151A81
:100A70001F24292F350005201A4A50710620ECE763
:100A80000920184A50720A20E7E70D20154A5073D2
:100A90000E20E2E71120134A50741220DDE71520E2
:100AA000104A50751620D8E719200E4A50761A20A1
:100AB000D3E71D200B4A50771E20CEE72120094A9C
:100AC00082F821002220C8E72520064A82F8250066
:100AD0002620C2E72920034A82F829002A20BCE701
:100AE0000020BAE77801002013B50C460A2C00DC80
:100AF00004B91CBD0B2C43D2DFE804F042060C12F3
:100B0000181E242A30363C0001221F49684600F096
:100B10008BF835E005221C49684600F085F82FE087
:100B200009221949684600F07FF829E00D2216498C
:100B3000684600F079F823E011221349684600F076
:100B400073F81DE015221049684600F06DF817E0B3
:100B500019220D49684600F067F811E01D220A4984
:100B6000684600F061F80BE021220749684600F072
:100B70005BF805E025220449684600F055F800BFFF
:100B800000BF00BFB5E700007801002070470000FB
:100B90000146114A12884A434FF0E0235A6100226D
:100BA0009A611A46126942F001021A6100BF4FF0C1
:100BB000E022106900F001021AB100F48032002A2C
:100BC000F5D04FF0E022126922F001024FF0E0234D
:100BD0001A6100229A617047680100200146114A9B
:100BE00012784A434FF0E0235A6100229A611A4674
:100BF000126942F001021A6100BF4FF0E022106951
:100C000000F001021AB100F48032002AF5D04FF052
:100C1000E022126922F001024FF0E0231A61002263
:100C20009A6170476A01002030B503461C788C54E5
:100C30005D78541C0D559D78941C0D55DD78D41CA1
:100C40000D5530BD2DE9F04102460025002600205B
:100C500000230024002791F803C00CF00F0591F841
:100C600003C00CF0100CBCF1000F03D091F802C0CF
:100C70004CEA050591F800C0BCF1000F31D01468B2
:100C800000202BE04FF0010C0CFA00F3B1F800C08B
:100C90000CEA03069E4220D183004FF00F0C0CFAA1
:100CA00003F7BC4305FA03FC4CEA040491F803C0C3
:100CB000BCF1280F06D14FF0010C0CFA00FCC2F871
:100CC00014C00AE091F803C0BCF1480F05D14FF001
:100CD000010C0CFA00FCC2F810C0401C0828D1D34B
:100CE0001460B1F800C0BCF1FF0F34DD546800207F
:100CF0002EE000F1080C4FF0010808FA0CF3B1F8EF
:100D000000C00CEA03069E4221D183004FF00F0C75
:100D10000CFA03F7BC4305FA03FC4CEA040491F80F
:100D200003C0BCF1280F05D100F1080C08FA0CF83B
:100D3000C2F8148091F803C0BCF1480F07D100F14C
:100D4000080C4FF0010808FA0CF8C2F81080401C9B
:100D50000828CED35460BDE8F08102460020936895
:100D60000B400BB1012000E000207047024600203C
:100D7000D3680B400BB1012000E0002070474161B7
:100D800070470161704700002DE9F04F8BB083463A
:100D900000F086FF61490860BBF1010F1BD100F034
:100DA00087FE5F4800685F4908605F49B1F902004B
:100DB000FFF708FC5D4908605B49B1F90400FFF7E3
:100DC00001FC5B4908605B49B1F90400FFF7FAFBDD
:100DD000594908609EE0432000F096F90746FFF766
:100DE000F1FB0446472000F08FF90746FFF7EAFBC6
:100DF00082463D2000F088F90746FFF7E3FB0546F1
:100E00003F2000F081F90746FFF7DCFB81464FF0F9
:100E10008E412046FFF75EFC05D24FF08F41204601
:100E2000FFF7D2F904464FF08E415046FFF752FCCF
:100E300005D24FF08F415046FFF7C6F982464FF07A
:100E40008E412846FFF746FC05D24FF08F412846D9
:100E5000FFF7BAF905464FF08E414846FFF73AFCD6
:100E600005D24FF08F414846FFF7AEF9814684F036
:100E700000402E4908604846FFF7DFFBCDE902013C
:100E800085F000400190FFF7D8FB0746DDE902231B
:100E900002F098F90022294BCDE90401FFF7B1FADD
:100EA000274A284BCDE90601FFF71DFBCDE90801D4
:100EB000FFF7EAFB06462046FFF7BFFB4FF066321E
:100EC000214BCDE90801FFF70EFB0746FFF7DCFBDE
:100ED00004461E480078022806D184F000473946AF
:100EE000304600F0F9F909E018480078032805D1E8
:100EF00084F000473946304601F088FD1448006808
:100F000008490860134806600948C0F800A00A486C
:100F1000C0F800900BB0BDE8F08F00004801002041
:100F20000C01002050010020FC0000205401002092
:100F3000580100200201002060010020008066406E
:100F4000F1D4C853FB2109406666304034010020CB
:100F5000740000206401002000B500F029FB014668
:100F6000012907D1274A107027480088401C264ACB
:100F7000108009E0022907D10120244A107024487A
:100F80000088401C224A10801E480078012803D0A7
:100F90001E480078012833D101B181BB0020194AD5
:100FA00010701A4A107018480088032808DD164887
:100FB0000088C82804DA0020134A1080032000BDEE
:100FC00011480088C82804DD00200F4A1080042042
:100FD000F5E70F480088032808DD0D480088C82879
:100FE00004DA00200A4A10800520E8E70848008853
:100FF000C82805DD0020064A10800620DFE7FFE74D
:1010000000BFDCE7140000201600002015000020BF
:101010001800002000BFFEE710B500F079FE402167
:101020001048FFF7AEFE0120FFF7D8FD80210D48E4
:10103000FFF79CFE40B940210A48FFF7A0FE0120BF
:10104000FFF7CCFD012010BD80210648FFF797FE79
:1010500040210448FFF793FE0120FFF7BFFD002069
:10106000F1E70000000C014010B5044600F066FEF8
:1010700044B180210D48FFF782FE40210B48FFF765
:1010800080FE07E080210948FFF77BFE40210748EA
:10109000FFF777FE0120FFF7A1FD40210348FFF78E
:1010A0006EFE80210148FFF76AFE10BD000C014072
:1010B00070B500F02DFE002518E040211148FFF723
:1010C0005EFE0120FFF78AFD40210E48FFF759FE22
:1010D0006006040E80210B48FFF73FFE08B1601C3C
:1010E000C4B20120FFF77AFD681CC5B2082DE4DB0D
:1010F00040210448FFF743FE0120FFF76FFD204623
:1011000070BD0000000C014070B5054600F08AF883
:10111000D02000F051F8FFF77FFF284600F04CF890
:10112000FFF77AFF00F07EF8D12000F045F8FFF7D6
:1011300073FFFFF7BDFF04020120FFF795FFFFF7E4
:10114000B7FF04430020FFF78FFF00F087F820B2BD
:1011500070BD2DE9F04104460F4615461E4600F0CD
:1011600061F8204600F028F8FFF756FF8046384621
:1011700000F022F8FFF750FF804600F053F844F0EB
:10118000010000F019F8FFF747FF80460DE0FFF778
:101190008FFF3070012D01D0012100E000210846B1
:1011A000FFF762FF681EC5B2761C002DEFD100F07C
:1011B00055F84046BDE8F08170B5044600F0BEFD2C
:1011C00080211748FFF7DDFD00251EE0402114486F
:1011D000FFF7D5FD04F08000802804D1802110485D
:1011E000FFF7CFFD03E080210D48FFF7C8FD012088
:1011F000FFF7F4FC40210A48FFF7C3FD0120FFF789
:10120000EDFC6006040E681CC5B2082DDEDB402133
:101210000348FFF7B4FD0120FFF7E0FC70BD0000BC
:10122000000C014010B500F089FD80210A48FFF74D
:10123000A8FD40210848FFF7A4FD0120FFF7CEFCE0
:1012400080210548FFF79BFD0120FFF7C7FC4021E7
:101250000148FFF794FD10BD000C014010B500F0EF
:101260006DFD40210848FFF78CFD80210648FFF7FF
:1012700086FD0120FFF7B2FC80210348FFF781FDC6
:101280000120FFF7ABFC10BD000C01402DE9F04739
:1012900004460E4617469846FFF7C4FF2046FFF760
:1012A0008BFFFFF7B9FE81463046FFF785FFFFF75A
:1012B000B3FE8146002504E018F80500FFF77CFF27
:1012C0006D1CBD42F8DBFFF7A7FE8146FFF7C6FFA6
:1012D0004846BDE8F08700002DE9F04105460C4680
:1012E000894801682046FEF76FFF07468748016876
:1012F0003846FEF76FFF0646854801683046FEF720
:1013000011FF834908608348416883480068FEF7FD
:101310005BFF06467F4881683046FEF755FF7F49F0
:1013200008607C48C06880F0004048607948C06828
:1013300080F0004088607A480068C8600868734997
:101340000968FEF747FF0646724801683046FEF717
:10135000E9FE70490860714948686C490968FEF700
:1013600039FF06466B4841683046FEF7DBFE6949A7
:1013700048606A49886865490968FEF72BFF064698
:10138000644881683046FEF7CDFE62498860634953
:10139000C8685E490968FEF71DFF06465D48C168DA
:1013A0003046FEF7BFFE5B49C860594801682846D1
:1013B000FEF70AFF5B4908605B480078FFF70BF90E
:1013C0000646544801683046FEF704FF5749086056
:1013D00055480078FFF7FFF806464E4881683046CA
:1013E000FEF7F8FE524908604F480078FFF7F3F81F
:1013F00007464E4801683846FEF7ECFE06464D4863
:1014000001683046FEF78EFE4B49086008460168C9
:1014100046480068FEF710FF4849086046480168E2
:1014200043480068FEF708FF454908603F480068E8
:10143000444908603C480078FFF7CDF80646354837
:1014400041683046FEF7C6FE3F4908603D480168E6
:101450003A480068FEF7BEFE06462E480168304650
:10146000FEF7B5FE2B49086037480168334800682D
:10147000FEF7B0FE0646274841683046FEF7A7FE55
:10148000244948602F4801682D480068FEF7A2FEF5
:101490000646204881683046FEF799FE1D4988605F
:1014A0002948016826480068FEF794FE0646194858
:1014B000C1683046FEF78BFE1649C86019480168BE
:1014C0001E480068FEF786FE064611480168304651
:1014D000FEF728FE0E4908601248016818480068A7
:1014E000FEF778FE0646084801683046FEF71AFE09
:1014F00005490860084601682046FEF765FE134965
:101500000860BDE8F0810000900000208800002005
:1015100074000020B40000207C000020A401002002
:1015200080000020940000208C0000209800002003
:101530009C00002084000020A0000020A4000020C7
:10154000A8000020AC000020B0000020780000209F
:1015500010B5FFF701FD0446032C0AD112480078AC
:101560004009C0431049097860F345110E480170E5
:1015700019E0042C0BD10D480078022803D1032078
:101580000A4908700FE00220084908700BE0062C99
:1015900009D1054800788009C0430349097860F300
:1015A00086110148017010BD410000203401002067
:1015B0000E48006810B10E48006858B90B48006822
:1015C00008B9012070470A48006808B90220F9E705
:1015D0000020F7E705480068012805D104480068A5
:1015E000012801D10020EDE70020EBE72001214296
:1015F0000081214218B900210D4A116017E001282D
:1016000003D101210A4A116011E00A490988491CE5
:1016100089B2084A1180814208D100211180044911
:101620000968C943044AC2F8B41100E000BF70471A
:10163000B40122421A0000200000224200BFFEE74F
:101640007047F8B504460D4617461E46304600F072
:1016500045F88DF800708DF801408DF8025001209A
:101660008DF80300684600F001F8F8BD70B5002160
:1016700000230F22C47804B3154C246804F4E064FA
:10168000C4F5E064210AC1F10403CA40447804FAB5
:1016900003F184781440214309010E4C0678A155CA
:1016A000047804F01F050124AC4005786D11AD00ED
:1016B00005F1E025C5F8004109E0047804F01F05B4
:1016C0000124AC40044D0678761145F8264070BDE3
:1016D0000CED00E000E400E080E100E0024901439D
:1016E000024A1160704700000000FA050CED00E0AE
:1016F0002DE9F04106460F461546A5F1200000F001
:10170000FF083946304600F01AF9002409E008EBDA
:101710004801064A02EB4101085D00F068F8601CD0
:10172000C4B2062CF3DBBDE8F0810000703C000879
:101730002DE9F047064688461746A7F1200000F03D
:10174000FF094146304600F0FAF8002415E006EBA8
:10175000C401C8B2414600F0F2F8002509E0094989
:1017600001EB091105EBC402885C00F040F8681C2D
:10177000C5B2082DF3DB601CC4B2022CE7DBBDE868
:10178000F08700009E3E000810B5044600F02CFBD8
:10179000782000F09FFB00F0E7FA002000F09AFBB1
:1017A00000F0E2FA204600F095FB012000F0FEFA7E
:1017B00000F038FB10BD70B5002415E004F1B00155
:1017C000C8B2FFF7E1FF0020FFF7DEFF1020FFF7B0
:1017D000DBFF002504E0002000F009F8681CC5B21A
:1017E000802DF8DB601CC4B2082CE7DB70BD10B59F
:1017F000044600F0F9FA782000F06CFB00F0B4FA2F
:10180000402000F067FB00F0AFFA204600F062FBDA
:10181000012000F0CBFA00F005FB10BD10B5C82088
:10182000FFF7B6F9AE20FFF7AFFF2120FFF7ACFFBF
:101830000020FFF7A9FF7F20FFF7A6FF2220FFF778
:10184000A3FF0020FFF7A0FF0720FFF79DFF202048
:10185000FFF79AFF0020FFF797FF4020FFF794FF64
:10186000A120FFF791FFC820FFF78EFFD320FFF7DD
:101870008BFF0020FFF788FFDA20FFF785FF10209D
:10188000FFF782FFA820FFF77FFF3F20FFF77CFFD5
:10189000DB20FFF779FF3020FFF776FF8120FFF78D
:1018A00073FFFF20FFF770FFA420FFF76DFFA62056
:1018B000FFF76AFFFF20FFF767FF8D20FFF764FF48
:1018C0001420FFF761FFAF20FFF75EFFFFF773FF04
:1018D000094800F013F8A720FFF756FF4FF47A707D
:1018E000FFF756F9A620FFF74FFF4FF47A70FFF786
:1018F0004FF9FFF760FF10BD8E4400082DE9F0415D
:10190000064600270021084600F019F8002412E0DE
:1019100000250CE0E106080E294600F010F83946D3
:101920007A1C97B2705CFFF762FF681CC5B2802D0D
:10193000F0DB601CC4B2082CEADBBDE8F0812DE9C5
:10194000F04105460C46402D08DB2846E91705EB1B
:1019500091618911A5EB8111CDB200E000BF802C0F
:1019600008DB2046E11704EB5161C911A4EBC1115A
:10197000CCB200E000BF2046E11704EB1171091161
:10198000A4EB0111CEB2E11704EB1171C1F30717FB
:101990002846E91705EB5171C1F3C70808F1B001FA
:1019A000C8B2FFF7F1FE3046FFF7EEFE07F1100177
:1019B000C8B2FFF7E9FEBDE8F0812DE9F041074626
:1019C0000E461546002431463846FFF7B8FF09E0B9
:1019D0002A5D062000FB0460C1B23846FFF788FE8E
:1019E000601CC4B2285D0028F2D1BDE8F0812DE969
:1019F000F04781460E4690461D46DDF820A00024A3
:101A00002BE0281B401EC1B20A2001F05DFFB8FB8D
:101A1000F0F00A21B0FBF1F201FB1207BAF1000F5E
:101A20000ED1681EA0420BDD47B9062000FB046002
:101A3000C1B220224846FFF75BFE0CE04FF0010ADE
:101A400007F13000C2B2062000FB0460C1B2484674
:101A5000FFF74EFE00BF601CC4B2AC42D1DBBDE854
:101A6000F0872DE9F04107460E461546002408E0B0
:101A70002A5D06EBC400C1B23846FFF759FE601C70
:101A8000C4B2285D0028F3D1BDE8F08170470000A2
:101A900029B1064A92690243044B9A6104E0034A61
:101AA00092698243014B9A61704700000010024026
:101AB0002DE9F04F8DB00AA860490BAB06AACDE91D
:101AC00000105F495F4801F093FC5C48008800F417
:101AD000807000287ED00698FEF774FD04464FF013
:101AE0009D41FEF7A9FB584908600798FEF76AFD7B
:101AF00004464FF09D41FEF79FFB5449086008984B
:101B0000FEF760FD04464FF09D41FEF795FB5049FE
:101B100008600998FEF756FD04464FF09D41FEF718
:101B20008BFB4C490860484801684FF08040FEF745
:101B300051FB0490464801680498FEF74BFB82462F
:101B4000424801684FF04040FEF744FB0490414892
:101B500001680498FEF73EFB83465146FEF7E2FA21
:101B60000590FEF76AFD804601F0DCF806464FF06E
:101B70006632394BFEF745FC0446FEF785FD3749D2
:101B80000860334801684FF08040FEF723FB019066
:101B90002F4801680198FEF71DFB82462B4801681B
:101BA0004FF04040FEF716FB01902848016801986D
:101BB000FEF710FB83465146FEF706FB81464FF0C9
:101BC0007E51FEF7AFFA0446FEF737FDCDE904017A
:101BD0001D4800E02FE001684FF08040FEF7FAFA60
:101BE00083461A4801685846FEF7F4FA81461848B9
:101BF00001684FF08040FEF7EDFA83461548016812
:101C00005846FEF7E7FA82464946FEF78BFA044645
:101C1000FEF713FDCDE90201DDE9042301F0D2FA5C
:101C200007464FF066320C4BFEF7EBFB0546FEF71E
:101C30002BFD0B4908600DB0BDE8F08F08010020B6
:101C400002010020FC0000201401002018010020E7
:101C50001C0100202001002066A64C400C01002041
:101C6000100100200246022A02D0032A10D108E007
:101C70004FF08040808C01B200204FF08043988468
:101C800008E00648008801B20020044B188001E0FB
:101C9000002100BF00BF08B27047000024040040CC
:101CA0002DE9F05F4120FFF72FFA0446FEF78AFC8A
:101CB00082464FF08E415046FEF70CFD05D24FF0A4
:101CC0008F415046FEF780FA82460D495046FEF796
:101CD000B3FA8346FEF7B1FC80460A4A0A4BFEF788
:101CE000E9FA06460022094BFEF78BFB0446FEF795
:101CF000CBFC82465046FEF773FCBDE8F09F000027
:101D00000000AA43A4703D0AD7434240000024408B
:101D100008B501210820FFF7BBFE8020ADF80000C8
:101D200003208DF8020004208DF803006946024864
:101D3000FEF788FF08BD0000000C014008B5012136
:101D40000820FFF7A5FE8020ADF8000003208DF8E5
:101D5000020014208DF8030069460248FEF772FF66
:101D600008BD0000000C014010B500F075F800F04F
:101D700089F808210C48FFF702F810210A48FEF7FD
:101D8000F5FF60B908210848FEF7FBFF0120FEF7C8
:101D900025FF08210448FEF7F2FF002010BD00F0E7
:101DA00041F80120FAE70000000C014010B504469C
:101DB00000F052F800F078F824B910210948FEF735
:101DC000DEFF03E010210748FEF7DBFF082105488E
:101DD000FEF7D7FF0120FEF701FF08210148FEF7BB
:101DE000CEFF10BD000C014010B500F035F800F03A
:101DF0005BF808210A48FEF7C4FF10210848FEF7E7
:101E0000C0FF0520FEF7EAFE10210548FEF7B7FFE8
:101E10000520FEF7E3FE08210148FEF7B0FF10BDE4
:101E2000000C014010B500F017F800F03DF8082153
:101E30000848FEF7A6FF10210648FEF7A0FF052080
:101E4000FEF7CCFE10210348FEF79BFF0520FEF7AE
:101E5000C5FE10BD000C014008B501210820FFF7A8
:101E600017FE10208DF8030003208DF802000820D3
:101E7000ADF8000069460248FEF7E4FE08BD000028
:101E8000000C014008B501210820FFF701FE0420E5
:101E90008DF803001020ADF8000069460148FEF7F8
:101EA000D1FE08BD000C014008B501210820FFF754
:101EB000EFFD14208DF8030003208DF802001020A0
:101EC000ADF8000069460248FEF7BCFE08BD000000
:101ED000000C014070B50446FFF7BEFFFFF7E4FFBA
:101EE00008211448FEF74BFF00251BE0082111488C
:101EF000FEF745FF04F08000802804D110210D4832
:101F0000FEF73FFF03E010210A48FEF738FF0120EB
:101F1000FEF764FE08210748FEF733FF6006040E53
:101F2000681CC5B2082DE1DB08210248FEF727FF37
:101F300070BD0000000C0140704710B500F002F8C1
:101F400010BD00000CB500200190009033480068DF
:101F500040F480303149086000BF3048006800F428
:101F6000003000900198401C0190009818B9019829
:101F7000B0F5A06FF1D12948006800F4003010B12D
:101F80000120009001E0002000900098012843D13A
:101F90002348006840F010002149086008460068A6
:101FA00020F0030008600846006840F00200086066
:101FB0001A48406819494860084640684860084621
:101FC000406840F4806048600846406820F47C1017
:101FD00048600846406840F4E810486008460068D9
:101FE00040F08070086000BF0C48006800F000708E
:101FF0000028F9D00948406820F0030007494860EC
:102000000846406840F00200486000BF034840684E
:1020100000F00C000828F9D10CBD000000100240AF
:102020000020024000B503460A46002B07DA0120D3
:102030001649086000201649C1F8940106E0002006
:102040001249086001201249C1F89401184601F0B4
:1020500033FC10490880002A08DA00200B49091FC8
:10206000086001200A49C1F8880107E001200749FA
:10207000091F086000200649C1F88801104601F0D8
:102080001BFC0449091D088000BD0000900121428D
:10209000000021423C08004038B585A200210846D6
:1020A000FFF7DFFC87A200211020FFF786FC8B489A
:1020B0000078022805D18AA20A211820FFF77DFCAA
:1020C00008E086480078032804D187A20A21182056
:1020D000FFF773FC86480078012805D185A24021CE
:1020E0001820FFF76AFC07E08148007820B984A235
:1020F00040211820FFF761FC84A205212820FFF76A
:102100005CFC4C222D212820FFF7F2FA8148B0F91F
:102110000000002810DA2D2235212820FFF7E8FAE8
:102120000120032300907B48B0F9000042423D218A
:102130002820FFF75CFC0EE02B2235212820FFF73A
:10214000D7FA0120032300907248B0F900203D2106
:102150002820FFF74CFC52225A212820FFF7C8FA0A
:102160006C48B0F90000002810DA2D2262212820E6
:10217000FFF7BEFA0120032300906748B0F9000082
:1021800042426A212820FFF732FC0EE02B22622116
:102190002820FFF7ADFA0120032300905E48B0F934
:1021A00000206A212820FFF722FC5CA208213820A9
:1021B000FFF703FC00215B480068FEF781FA11D2AB
:1021C000594958480068FDF7ADFF0546FEF721FA6A
:1021D0000446012003232246282100903820FFF7DF
:1021E00006FC0CE04F480068FEF713FA0446012095
:1021F00003232246282100903820FFF7F8FB4BA24A
:1022000042213820FFF7D9FB4A4800680A2190FB99
:10221000F1F0841F0020022322465C210090382028
:10222000FFF7E5FB44A268213820FFF7C6FB4148D1
:1022300000680A2190FBF1F201FB12040020012347
:1022400022466E2100903820FFF7D1FB7B227421BB
:102250003820FFF74DFA43227A213820FFF748FA59
:1022600036480078032804D12B480178344800F020
:102270008DFB32480078062804D126480178304882
:1022800000F084FB2D48007809280BD100202B4951
:10229000087024480068FEF7A3F9C4B22146284814
:1022A00000F074FB25480078401C2449087038BDB4
:1022B00042414C414E43455F4341525F56332E30BD
:1022C000000000003D3D3D3D3D3D3D3D3D3D3D3D32
:1022D0003D3D3D3D3D3D3D3D3D0000003401002084
:1022E0004B616C6D616E000059694A6965200000A0
:1022F000F80000204E524632344C303120000000AD
:10230000426C7565546F6F7468000000535045450A
:10231000440000003C0100203E010020416E676C3B
:1023200065000000500100200000B44354656D704A
:1023300000000000480100202E000000F9000020ED
:10234000004800407047000010B51348006840F096
:1023500001001149086008464068104908400E49CC
:102360004860084600680E4908400B490860084666
:10237000006820F4802008600846406820F4FE00D1
:1023800048604FF41F008860FFF7D7FD4FF00060F2
:102390000449086010BD0000001002400000FFF872
:1023A000FFFFF6FE08ED00E00EB50121C802FFF7C1
:1023B0006FFB4720ADF800000020ADF8020031208F
:1023C000ADF804000020ADF8060002231922012117
:1023D000FFF737F96946064800F0C8F801221146B0
:1023E000034800F0B9F80121014800F098F80EBD4B
:1023F000002C014010B50120FFF7FCF801212D4809
:1024000000F099F8002850D001212A4800F084F803
:102410000220FFF727FC284908800320FFF722FC51
:10242000404200B22549088025480078FEF7ACFC00
:10243000FFF78EF8234801682348006800F082FF08
:10244000224908601D48B0F900101B48B0F900008F
:1024500001F030FB1E4908601E4802681748B0F9B9
:1024600000101548B0F9000001F060FA1A49086040
:102470001648006816490968401A18490860134848
:10248000006813490968401A1549086000F084FA89
:10249000144801680C48006800F0BAF828B91048E0
:1024A00001680E480068FFF7BDFD0020FFF7A2F8A5
:1024B00010BD0000002C01403C0100203E01002026
:1024C000340100205401002050010020340000207D
:1024D00038000020580100203C000020400100206E
:1024E000440100204C0100204FF08040008A4FF052
:1024F0008040008A20F001004FF080410882704740
:10250000044800880348008820F001000149088041
:102510007047000010040040CA430282704721B196
:10252000028842F00102028004E002884FF6FE7346
:102530001A400280704730B5024600200023002474
:10254000158A05EA0103958905EA010413B10CB166
:10255000012000E0002030BD1AB183890B43838144
:1025600002E083898B438381704700000022028848
:102570001D4B98420ED01D4B98420BD0B0F1804FAE
:1025800008D01B4B984205D01A4B984202D01A4BE8
:10259000984204D14FF68F731A404B881A43174B59
:1025A000984207D0164B984204D04FF6FF431A408A
:1025B000CB881A4302808B8883850B8803850A4B5E
:1025C00098420BD0094B984208D00E4B984205D048
:1025D0000D4B984202D00D4B984201D10B7A0386E5
:1025E0000123838270470000002C01400034014029
:1025F0000004004000080040000C004000100040B3
:1026000000140040004001400044014000480140E7
:1026100070B505460E4610492846FEF751F809D315
:102620000E492846FEF756F804D30D480078C0F34B
:10263000401068B1012400200A4908600A49C1F825
:1026400090010849083908600749C1F8880100E08D
:102650000024204670BD0000000020C2000020427F
:102660004100002094012142000021421D490988B7
:1026700001F0200111B31B49091D0988C8B21A498C
:10268000098801F40041C9B91749098801F480415A
:1026900061B10A2803D00021134A118020E01249B9
:1026A000098841F40041104A118019E00D2806D133
:1026B0000D49098841F480410B4A118010E00A4914
:1026C0000988C1F30D01094A505407490988491C7A
:1026D000054A118011460988C72901DD00211180B2
:1026E00070470000003801406C010020C401002048
:1026F00010B540F22551834800F019F9002876D032
:10270000804800F03EF980490860084600787F491B
:1027100008707D480068592822D108468078497899
:1027200088421DD17948407878490978884217D184
:102730000020764988704870087075480078C0F3AA
:10274000001038B97248007820F02000203070491D
:10275000087005E06E48007820F010006C490870A1
:1027600069480068582828D16848807867494978BE
:10277000884222D1654840786449097888421CD152
:102780000020624988704870087061480078C0F382
:10279000401058B15E48007820F020005C49087075
:1027A0000846007820F01000087006E058480078CD
:1027B00020F01000103056490870534800685A281D
:1027C00016D15348007820F001005149087008469E
:1027D000007820F0020008700846007820F004001D
:1027E00008700846007820F00800087081E087E053
:1027F00045480068412816D14548007820F001007E
:10280000401C434908700846007820F00200087018
:102810000846007820F0040008700846007820F090
:102820000800087065E038480068452816D1384827
:10283000007820F00100364908700846007820F042
:102840000200801C08700846007820F00400087020
:102850000846007820F0080008704AE02A4800681E
:10286000432816D12A48007820F001002849087032
:102870000846007820F0020008700846007820F032
:10288000040008700846007820F00800083008703E
:102890002FE01D480068472816D11D48007820F019
:1028A00001001B4908700846007820F002000870FB
:1028B0000846007820F00400001D087008460078E3
:1028C00020F00800087014E01148007820F00100A2
:1028D0000F4908700846007820F00200087008468A
:1028E000007820F0040008700846007820F0080006
:1028F0000870064840780549887008460078487096
:1029000010BD0000004800403000002025000020DD
:102910004100002002460020B1F5007F00D100BF39
:1029200013880B400BB1012000E00020704770B508
:102930000246002400230025002040F66A16B1421A
:1029400000D100BFC1F3421501F01F03012606FAB2
:1029500003F3012D02D19689334006E0022D02D106
:10296000168A334001E0968A33400C12012606FA9B
:1029700004F41688344013B10CB1012000E00020AB
:1029800070BD01468888C0F308007047C1F3080293
:102990008280704700BFFEE741F6BC3018490978D5
:1029A00001F0010121B117490968C831154A1160C8
:1029B00013490978C1F3400121B113490968C839A5
:1029C000114A11600F4909684242914202DA4142BC
:1029D0000C4A11600B490968814201DD0949086010
:1029E000094909684242914202DA4142064A1160AD
:1029F00005490968814201DD03490860704700000C
:102A00004100002040010020440100202DE9F04F4A
:102A10008BB083468A465046FDF70FFE80461C4A1F
:102A20001C4BFDF7EEFCCDE902011B480068FDF7E9
:102A300004FECDE90001DDE90223FDF73BFC04467D
:102A40000D46164801684FF07E50FDF7BDFB8046ED
:102A5000FDF7F3FD064622462B46FDF7D2FCCDE9F5
:102A600006010E4801685846FDF7B4FB0446FDF721
:102A7000E4FDCDE90401DDE90623FDF71BFCCDE90A
:102A80000801FDF701FE044908600BB0BDE8F08FB6
:102A9000FCA9F1D24D62603F74000020700000205C
:102AA0000FB4054B10B503A9044A029800F090F842
:102AB00010BC5DF814FB0000BD350008700100205B
:102AC000490050EAC12018BF04204A0D18BF40F049
:102AD000010040F2FF72B2EB515F08BF40F002000C
:102AE000012808BF052070472DE9F0414F1E00EB7B
:102AF000C7010446D1E9000115461E4637F006021B
:102B00000DD02A463346FDF77CFC7F1E04EBC7033D
:102B1000D3E90023FDF7CEFB37F00602F1D1022FF7
:102B200025D0042F13D0062F18BFBDE8F0812A4608
:102B30003346FDF766FCD4E90A23FDF7BBFB2A46C2
:102B40003346FDF75EFCD4E90823FDF7B3FB2A46C4
:102B50003346FDF756FCD4E90623FDF7ABFB2A46C6
:102B60003346FDF74EFCD4E90423FDF7A3FB2A46C8
:102B70003346FDF746FCD4E90223FDF79BFB2A46CA
:102B80003346FDF73EFCD4E90023BDE8F041FDF7F4
:102B900091BB0000024A00201107FDF77EBE000035
:102BA00001FDFFFF02E008C8121F08C1002AFAD188
:102BB00070477047002001E001C1121F002AFBD1BD
:102BC0007047000001490860704700007401002050
:102BD0002DE9FF4F89B09B460446002506E02528D5
:102BE0000BD05A460B999047641C6D1C2078002826
:102BF000F5D10DB02846BDE8F08F0027B846012278
:102C0000474900E0074314F8013F203B02FA03F074
:102C10000842F7D120782E2819D114F8010F47F077
:102C200004072A280ED06FF02F022078A0F130017F
:102C300009290CD808EB880102EB410100EB0108DF
:102C4000641CF2E70A98641C50F8048B0A90207800
:102C50000028CED0642808D0692806D075281ED058
:102C60005A460B9990476D1C58E00A994FF00A0993
:102C700001C90A91002802DA40422D2102E03905FB
:102C800004D52B218DF82010012103E0F90704D091
:102C90002021F7E78A4608AE0DE00021FAE70A99FD
:102CA0004FF00A0901C90A91F7E74946FDF71CFDF3
:102CB000303106F8011D0028F7D1ADEB060000F118
:102CC0002009780701D44FF00108C84502DDA8EBC0
:102CD000090000E000208046002706E008A85A46C8
:102CE000C05D0B9990476D1C7F1C5745F6DB04E0D7
:102CF00030205A460B9990476D1CB8F10001A8F19D
:102D00000108F5DC05E016F8010B5A460B999047CF
:102D10006D1CB9F10001A9F10109F4DC641C65E73F
:102D2000092801002DE9F04D904F21F0004A86B0AE
:102D300005460C46BA4530DBAAEB070028430CD009
:102D40008B48824501DC1CD1DDB106B02846BDE8C8
:102D5000F04D4FF00102FDF7A0BD864A864B284694
:102D6000FDF74FFB07460E46844A854B2846214611
:102D7000FDF747FB06B03A463346BDE8F04DFDF798
:102D800099BA0120FFF71EFF06B00022BDE8F04D02
:102D9000134610461146FDF7A6BB7A48824542DA33
:102DA000BAF1795F0BDA2846FFF78AFE042808BFDC
:102DB000FFF7F0FE284606B02146BDE8F08D2A4612
:102DC0000B461046FDF71DFB834602466E480E4635
:102DD0000B4606217844FFF787FE5A463346FDF737
:102DE00010FB804669488A465A4633460421784497
:102DF000FFF77AFE5A463346FDF703FB00223B46B7
:102E0000FDF758FA02460B4640465146FDF76BFB6C
:102E10002A462346FDF7F5FA06B02A462346BDE8C2
:102E2000F04DFDF747BA284624F0004100223D4608
:102E30003B46FDF7E3FA4FF0FF32FDF72EFD064665
:102E4000024653480F460B4606217844FFF74CFED6
:102E500032463B46FDF7D5FACDE900014D483246F2
:102E60003B4604217844FFF73FFE32463B46FDF7E0
:102E7000C8FA00222B46FDF71DFA83460291304620
:102E8000394600F02CFD804643480D46504517DC7E
:102E9000DDE900015A46029BFDF725FB42462B4621
:102EA000FDF7AFFA42462B46FDF704FA0122FDF783
:102EB000F4FC304A304BFDF79EFA304A304B4CE080
:102EC0004FF0000A52460B464046FDF7F3F9CDE9B4
:102ED000031052462B4610461946FDF792FA324629
:102EE0003B46FDF78BFADDE90332FDF7FCFA0646B7
:102EF0000F46DDE900015A46029BFDF7F4FA8346CE
:102F00000091012230463946FDF7C7FC194A1A4B99
:102F1000FDF774FA06460F46012240462946FDF7A2
:102F2000BCFC5A46009BFDF76CFA32463B46FDF767
:102F300062FA07460E46012250462946FDF7ADFCCF
:102F40000E4DDFF858802A464346FDF757FA3A46B9
:102F50003346FDF753FA2A464346FDF74FFA002C55
:102F6000D8BF81F0004106B0BDE8F08D0000F03F11
:102F70000000F07F075C143326A6913C182D4454C2
:102F8000FB21F93F0000E03F081B00001E1B000072
:102F9000921A0000A81A00003333EF3FFB21E93FEB
:102FA0002DE9F84F04460D4621F000400091744988
:102FB000814213DC7349884201DC08D13CB12046D0
:102FC0002946BDE8F84F4FF00102FDF766BC6E4898
:102FD000002DCCBF6D496E49BDE8F88F6D49814227
:102FE00011DD6D498142D8BF4FF0FF366DDD2046BF
:102FF0002946FFF765FD042808BFFFF7CBFD2046F3
:103000002946BDE8F88F6549654F25F000458142A6
:1030100033DD6449814219DD002632464FF080439A
:1030200020462946FDF746F980468A460122204679
:103030002946FDF732FC00223B46FDF7DCF942460B
:103040005346FDF750FA04460D463EE001260022A5
:10305000BA463B4620462946FDF72CF980460F46E6
:103060000022534620462946FDF7C5F942463B4615
:10307000FDF739FA04460D4627E04B4981421BDD36
:10308000DFF8288102260022434620462946FDF724
:10309000B8F900223B46FDF70DF907468A460022A3
:1030A000434620462946FDF7A6F93A465346FDF722
:1030B0001AFA04460D4608E0032622462B46002055
:1030C0003B49FDF710FA04460D4622462B461046B2
:1030D0001946FDF796F98B46824602460B46FDF7E8
:1030E00090F907460246334888460B460621784445
:1030F000FFF7FAFC52465B46FDF783F982462E48FD
:103100008B463A46434605217844FFF7EDFC3A46A4
:103110004346FDF776F902460B46002E50465946C7
:103120000CDAFDF7C7F822462B46FDF76AF901B025
:1031300022462B46BDE8F04FFDF760B9FDF7BAF81F
:1031400022462B46FDF75DF91C4A7A4402EBC60382
:10315000D3E90023FDF74FF922462B46FDF74BF943
:10316000174A7A4402EBC603D3E90023FDF746F978
:10317000009A002AB8BF81F00041BDE8F88F000036
:10318000000010440000F07F182D4454FB21F93F4B
:10319000FB21F9BF0000DC3F0000203E0000F33FB0
:1031A0000000F03F0000E63F008003400000F83FD1
:1031B0000000F0BFA618000064180000021800000C
:1031C000CA1700002DE9F04D9446CCF1000423F01D
:1031D00000464CEA0404524F46EAD4749A468846A4
:1031E00021F00042BC4206D8454240EA050442EACA
:1031F000D474BC4204D9BDE8F04D6246FDF75AB81C
:10320000AAF14055A5F17F6555EA0C040BD00224C4
:1032100004EAAA74434DDFF810E144EAD87452EA94
:10322000000B04D00CE0BDE8F04DFFF7B9BE002C58
:1032300014BF012CBDE8F08D022C30D0032C32D00D
:1032400056EA0C0B0AD0BE4220D1BA4209D126F070
:10325000804622F080423346114617E000291ADBEF
:1032600025E0DFF8C8B0FB44002C04BFDBE9000117
:10327000BDE8F08D012C02BFDBE9000181F00041C7
:10328000BDE8F08D022C0AD0032C0CD0BA4212D12A
:10329000B8F1000F0BDA23482549BDE8F08D284628
:1032A0002449BDE8F08D28467146BDE8F08D1D48E3
:1032B0002149BDE8F08D921B12153C2AC4BF194864
:1032C0001D490EDCBAF1000FBEBF12F13C0F002009
:1032D000014606DB6246FDF706F921F00041FFF7E3
:1032E0005FFE002C08BFBDE8F08D012C04BF81F00B
:1032F0000041BDE8F08D114A114B022C07D0FDF7BB
:103300007AF82A46BDE8F04D0A4BFDF774B8FDF790
:1033100072F82A46BDE8F04D064BFDF76FB8000085
:103320000000F07F182D4454FB2109C05E170000F7
:10333000FB21F9BFFB210940FB21F93F075C143356
:1033400026A6A13C2DE9F84F05460C460D4E0E4F22
:10335000F1022846FCF738FF009039462046FCF77A
:1033600039FF824630460099FCF734FF83465146C8
:10337000FCF7D8FE8146FDF733F980464046BDE8AC
:10338000F88F0000000048446666E63F2DE9F041F2
:103390000446E07800F0C006E07800F03F05607871
:1033A00000F0010098B1EF102846E91705EB5171C4
:1033B000C910A5EBC101491C01F0FF080B480068CA
:1033C00020B10A48414602683846904700BF6078FD
:1033D00000F0080030B10548406818B1B011034A48
:1033E000516888470020BDE8F0810000B40100204A
:1033F0002DE9F04F8DB00746884615469946DDE920
:10340000166B0024002030806B49887B5A4605A942
:1034100000F014F918B1601E0DB0BDE8F08F6648D9
:10342000807A00F01400002867D09DF81400000690
:103430009DF8151040EA01409DF8161040EA012061
:103440009DF81710084328609DF8180000069DF8A5
:10345000191040EA01409DF81A1040EA01209DF839
:103460001B10084368609DF81C0000069DF81D10A5
:1034700040EA01409DF81E1040EA01209DF81F100F
:103480000843A8609DF8200000069DF8211040EA3E
:1034900001409DF8221040EA01209DF823100843C6
:1034A000E86004F11000C4B2286800140190686854
:1034B00000140290A86800140390E86800140490B7
:1034C00001984043029901FB0100039901FB0100AF
:1034D000049901FB010ABAF1706F02DBBAF1885F4F
:1034E00005DD00F00BF900203080401E94E7B6F9AE
:1034F000000040F48070308000BF2F48807A00F0D8
:10350000400020B305A9601C085C095D40EA012069
:1035100000B2A8F8000005A9E01C095C05AAA01CDF
:10352000105C41EA002000B2A8F8020005A9601D65
:10353000095C201D105C41EA002000B2A8F80400DC
:10354000A01DC4B2B6F9000040F0080030801A484F
:10355000408900F4C07008B305A9601C085C095DCF
:1035600040EA012000B2388005A9E01C095C05AAE8
:10357000A01C105C41EA002000B2788005A9601D03
:10358000095C201D105C41EA002000B2B880A01D3B
:10359000C4B2B6F9000040F0700030800648807A6E
:1035A00000F0030018B105A90819FFF7EFFE48461F
:1035B00000F089F900202FE7B401002070B504461F
:1035C0000D46E1B20548FFF7E1F900BF802103484D
:1035D000FFF7A0F90128F9D1204670BD003801405D
:1035E000FEF71CF906A0FFF75BFAFEF7DDFE0BA065
:1035F000FFF756FA03E0FEF74FFDFDF7E7F9FAE7AC
:103600004F4C454420696E697469616C697A6564E0
:1036100020636F6D706C6574650D0A007379737447
:10362000656D20696E697469616C697A656420638F
:103630006F6D706C6574650D0A000000F8B5044686
:103640000F4616462C4890F8240010B94FF0FF3072
:10365000F8BD2948807A10B94FF0FF30F8E7264AC4
:103660001268917A244A526810786B460222FDF75C
:1036700070FD10B14FF0FF30EAE79DF801009DF8B2
:10368000001040EA0125A54203DA00203070401EF8
:10369000DEE7194840684088B5EB600F17DD164A31
:1036A0001268517C144A526810786B460122FDF76B
:1036B00050FD10B14FF0FF30CAE79DF8000000F058
:1036C000100020B100F01AF86FF00100C0E7E2B27C
:1036D000094B1B68D97A084B5B6818783B46FDF7A5
:1036E00038FD10B14FF0FF30B2E795FBF4F0401E0B
:1036F00030700020ACE70000C400002008B56D4821
:10370000807A10B94FF0FF3008BD00200090694A60
:103710001268D17B674A526810786B460122FDF728
:10372000B5FD10B14FF0FF30EEE7624A12685179F3
:10373000604A526810786B460122FDF7A7FD10B170
:103740004FF0FF30E0E75B4A12681179594A52683E
:1037500010786B460122FDF799FD10B14FF0FF3054
:10376000D2E7544890F82400002850D00C20009054
:10377000504A126811794F4A526810786B460122FC
:10378000FDF784FD10B14FF0FF30BDE7C020009081
:103790004848807A00F0010020B19DF8000040F018
:1037A00020000090434A12681179424A526810780A
:1037B0006B460122FDF76AFD10B14FF0FF30A3E721
:1037C0003C48407C10B10220009001E000200090B5
:1037D000384A1268D17B374A526810786B4601220A
:1037E000FDF754FD10B14FF0FF308DE70020009041
:1037F000304A126851792F4A526810786B4601227C
:10380000FDF744FD002852D04FF0FF307CE7042044
:103810000090284A12681179264A526810786B463F
:103820000122FDF733FD10B14FF0FF306CE7214866
:10383000807C20B91F48807A00F0010010B9402038
:10384000009001E0602000901A4A12681179194A2C
:10385000526810786B460122FDF718FD10B14FF049
:10386000FF3051E71348407C10B10120009001E087
:10387000002000900F4A1268D17B0E4A52681078DF
:103880006B460122FDF702FD10B14FF0FF303BE720
:10389000084A12685179074A52681078054B10336C
:1038A0000122FDF7F3FC10B14FF0FF302CE70020B0
:1038B0002AE70000C40000200146002901DA48423E
:1038C00000E008467047704710B50246012000E04E
:1038D00050430B00A1F10104E1B2F9D110BD2DE973
:1038E000F04106460F46FDF701F804000D4618BFEB
:1038F0000120284320F00040C0F17F6000F1E0404B
:10390000C00F0ED0301C18BF0120384320F00040FB
:10391000C0F17F6000F1E040C00F04BF0120FFF75D
:1039200051F920462946BDE8F08100002DE9F05FFD
:1039300005460E46914652480078C0F3001008B97B
:10394000022000E00120322191FBF0F73846FCF71D
:1039500039FE0446DFF82CA1DFF82CB14848007886
:10396000C0F3800020B946480078C0F3C000A0B37F
:103970004FF07E5145480068FCF7D4FB43490746A9
:1039800008604FF07E51FCF79BFE07D1A819FFF7A6
:1039900093FF0746FCF716FE3D4908603C48016866
:1039A0003C48FCF749FC3C49086008460068FCF7C5
:1039B00044FE07464FF03332384BFCF751FE02D23B
:1039C000374835490860374933480068FCF782FEBC
:1039D0000CD234483049086008E0FFE732482E49ED
:1039E00008600020294908602949086024480078B7
:1039F000C0F3800040B1284801682C480068FCF7FB
:103A0000E3FB2A49086010E01D480078C0F3C000BD
:103A100040B12148016825480068FCF783FB234931
:103A2000086002E000202149086021461F48006824
:103A3000FCF750FE01D21D48046084F000471B488B
:103A400001683846FCF746FE03D284F0004017496F
:103A5000086059464846FCF7BDFB074651461348E7
:103A60000068FCF7B7FB80463946FCF75BFB104962
:103A7000086008460068FCF7B3FDBDE8F09F000051
:103A8000410000200000F041CDCC4C3F6C000020F4
:103A90006400002000004842680000203333E33F08
:103AA0009A99193F000040406666663F5C0000201E
:103AB000600000202DE9FC5F5B4801905B480090AE
:103AC0005B48007800F0010098B159490978C1F3CA
:103AD000001109B9022100E001210846FCF772FD3E
:103AE0000446214653480068FCF7A6FB524908608B
:103AF0001EE04F480078C0F34000B0B14C4909784F
:103B0000C1F3001109B9022100E001210846FCF7C8
:103B100059FD05464748006880F000442946204684
:103B2000FCF78AFB4449086002E000204249086033
:103B30004249B1F90010424AB2F900201144084646
:103B4000FCF740FD3F4908603F480068FCF775FD01
:103B500006463E4A3E4BFCF754FC0446FCF794FDF7
:103B60003949086037480068FCF767FD8046374AE6
:103B7000384BFCF746FC04460D4633480068FCF71A
:103B80005CFD064622462B46FCF794FB8246FCF77A
:103B90007BFD2D490860084601682F480068FCF746
:103BA000C1FA2D490860244801682B480068FCF7D9
:103BB0000BFB29490860294927480068FCF78AFD62
:103BC00002D2264824490860254923480068FCF7AA
:103BD00077FD02D22248204908601F4800990068FA
:103BE000FCF7F8FA0446184801990068FCF7F2FA65
:103BF00005462146FCF796FA1A4908601A480168FA
:103C00001A480068FEF704FD012804D0084800782F
:103C1000C0F3401010B100200F490860114800683F
:103C2000FCF7DEFCBDE8FC9F00000C433333333F60
:103C30004100002058000020500000203C010020DE
:103C40003E010020480000204C0000209A999999DC
:103C50009999E93F9999C93F5400002000401C46BA
:103C600000401CC6440000204C01002050010020F0
:103C70000000000000000000002F0000000007000E
:103C8000070000147F147F1400242A7F2A12006288
:103C90006408132300364955225000000503000034
:103CA00000001C224100000041221C000014083EBC
:103CB00008140008083E0808000000A06000000882
:103CC00008080808000060600000002010080402D6
:103CD000003E5149453E0000427F40000042615194
:103CE0004946002141454B31001814127F1000272E
:103CF00045454539003C4A494930000171090503F1
:103D000000364949493600064949291E0000363621
:103D10000000000056360000000814224100141470
:103D20001414141400004122140800020151090661
:103D300000324959513E007C1211127C007F4949E2
:103D40004936003E41414122007F4141221C007F13
:103D500049494941007F09090901003E4149497A21
:103D6000007F0808087F0000417F4100002040419B
:103D70003F01007F08142241007F40404040007F07
:103D8000020C027F007F0408107F003E4141413E4B
:103D9000007F09090906003E4151215E007F091993
:103DA00029460046494949310001017F0101003F90
:103DB0004040403F001F2040201F003F4038403F10
:103DC0000063140814630007087008070061514974
:103DD000454300007F41410000552A552A55000007
:103DE00041417F0000040201020400404040404085
:103DF000000001020400002054545478007F48441D
:103E0000443800384444442000384444487F003853
:103E10005454541800087E0901020018A4A4A47C7C
:103E2000007F080404780000447D40000040808446
:103E30007D00007F102844000000417F4000007C8E
:103E400004180478007C080404780038444444389A
:103E500000FC242424180018242418FC007C0804E6
:103E6000040800485454542000043F444020003CBF
:103E70004040207C001C2040201C003C4030403C46
:103E8000004428102844001CA0A0A07C00446454D6
:103E90004C44000006090600141414141414000005
:103EA0000000000000000000000000000000000012
:103EB00000F8000000000000003330000000001097
:103EC0000C06100C0600000000000000000040C0BE
:103ED0007840C0784000043F04043F0404000070B0
:103EE00088FC08300000001820FF211E0000F008A8
:103EF000F000E018000000211C031E211E0000F04D
:103F00000888700000001E21232419272110101694
:103F10000E00000000000000000000000000000093
:103F200000E0180402000000000718204000000212
:103F30000418E00000000040201807000000404086
:103F400080F0804040000202010F010202000000E8
:103F500000F0000000000101011F0101010000004C
:103F600000000000000080B07000000000000000B1
:103F7000000000000000000101010101010100003A
:103F800000000000000000303000000000000000D1
:103F9000000080601804006018060100000000E0C6
:103FA00010080810E000000F102020100F00001073
:103FB00010F8000000000020203F202000000070CA
:103FC00008080888700000302824222130000030C2
:103FD0000888884830000018202020110E000000BA
:103FE000C02010F8000000070424243F240000F83B
:103FF0000888880808000019212020110E0000E020
:10400000108888180000000F112020110E000038C1
:104010000808C83808000000003F000000000070D9
:10402000880808887000001C222121221C0000E062
:1040300010080810E0000000312222110F000000DB
:1040400000C0C00000000000003030000000000090
:104050000080000000000000806000000000000000
:104060008040201008000001020408102000404099
:1040700040404040400004040404040404000008DC
:104080001020408000000020100804020100007091
:1040900048080808F0000000003036010000C03079
:1040A000C828E810E0000718272423140B0000009C
:1040B000C038E0000000203C23020227382008F826
:1040C000888888700000203F202020110E00C0301A
:1040D000080808083800071820202010080008F8F1
:1040E00008080810E000203F202020100F0008F8EA
:1040F0008888E8081000203F20202320180008F8B6
:104100008888E8081000203F200003000000C0302D
:1041100008080838000007182020221E020008F8AE
:1041200008000008F808203F210101213F20000875
:1041300008F8080800000020203F202000000000B0
:104140000808F8080800C08080807F00000008F898
:1041500088C028180800203F20012638200008F8D1
:10416000080000000000203F20202020300008F838
:10417000F800F8F80800203F003F003F200008F852
:1041800030C00008F808203F200007183F00E0106A
:1041900008080810E0000F10202020100F0008F879
:1041A00008080808F000203F210101010000E0108C
:1041B00008080810E0000F18242438504F0008F8B1
:1041C000888888887000203F2000030C3020007011
:1041D0008808080838000038202121221C0018080F
:1041E00008F8080818000000203F2000000008F828
:1041F00008000008F808001F202020201F00087871
:10420000880000C83808000007380E010000F808D0
:1042100000F80008F800033C0700073C03000818FA
:1042200068808068180820302C03032C3020083860
:10423000C800C83808000000203F20000000100817
:104240000808C8380800203826212020180000005F
:1042500000FE020202000000007F40404000000C0F
:1042600030C000000000000000010638C00000025D
:104270000202FE000000004040407F0000000000FD
:104280000402020204000000000000000000000020
:10429000000000000000808080808080808000021C
:1042A0000204000000000000000000000000000008
:1042B0008080808000000019242222223F2008F8FC
:1042C000008080000000003F112020110E0000003F
:1042D000008080800000000E1120202011000000CE
:1042E00000808088F800000E112020103F20000080
:1042F000808080800000001F222222221300008084
:1043000080F0888888180020203F202000000000CE
:10431000808080808000006B94949493600008F803
:10432000008080800000203F210000203F2000808E
:104330009898000000000020203F2020000000008E
:1043400000809898000000C08080807F000008F8FE
:10435000000080808000203F24022D3020000008D3
:1043600008F8000000000020203F2020000080808E
:10437000808080808000203F20003F20003F8080A0
:10438000008080800000203F210000203F200000AE
:10439000808080800000001F202020201F0080805F
:1043A00000808000000080FFA12020110E0000008E
:1043B000008080808000000E112020A0FF8080807F
:1043C00080008080800020203F212000010000002C
:1043D0008080808080000033242424241900008001
:1043E00080E0808000000000001F2020000080800E
:1043F000000000808000001F202020103F208080CF
:1044000080000080808000010E300806010080805E
:104410000080008080800F300C030C300F00008083
:104420008000808080000020312E0E3120008080AE
:1044300080000080808080818E70180601000080DE
:104440008080808080000021302C222130000000FC
:104450000000807C020200000000003F404000009D
:104460000000FF00000000000000FF00000000024C
:10447000027C800000000040403F00000000000679
:104480000101020204040000000000000000FF011E
:10449000010101010101010101010101010101010C
:1044A00001010101010101F1098909F10101F1098C
:1044B0008909F101010111894931017949498901CC
:1044C000B14949B101F10909F101F10909F101F11C
:1044D000494991017949498901F10909F10179496C
:1044E000498901F1494991010101F94949E9E9B9CC
:1044F000B9E9E94949F9010101010101010101019C
:1045000001010101010101010101010101FFFF00A0
:10451000000000000000000000000000000000009B
:10452000000000000000000182C263E3E260B1D23B
:10453000DAEBEFEEE4F4FFFEFEFEF8F9FAFAF1F042
:10454000F1F2F2E1C0C182020100010202010001A8
:10455000020201000102028180C1C2E2E1F0F1D257
:10456000D2D9D8D9DADAD9D8D8D8DBB2B2A2A263F4
:1045700043C2C282020300000000000000000000ED
:1045800000000000000000000000000000FFFF002D
:10459000000000000000000000000000000000001B
:1045A00000008080C0C040FE87F9FCFFFFFFFFFFD6
:1045B000FFFFFFFFFFFFFFFFFFFFFFFFFFFFFFFF0B
:1045C000FFFFFFFFFFFFFFFFFFFEFEFCF8E08000A4
:1045D000000000E0F8FEFFFFFFFFFFFFFFFFFFFF0F
:1045E000FFFFFFFFFFFFFFFFFFFFFFFFFFFFFFFFDB
:1045F000FFFEFEFDFDFBF6FCF8F0E0C080000000D1
:1046000000000000000000000000000000FFFF00AC
:104610000000000000000000000000000080F8FC26
:10462000B7E3F9FCFEFEFEFEFFFFFFFFFFFFFFFF0B
:10463000FFFFFFFFFFFFFFFFFFFFFFFFFFFFFFFF8A
:10464000FFFFFF7F3FFFFF7FF3C30307070F1F3EFF
:104650000000000107FF7F7F7FFFFFFFFFFFFFFFDD
:10466000FFFFFFFFFFFFFFFFFFFFFFFFFFFFFFFF5A
:10467000FFFFFFFFFFFFFFFFFFFFFFFFFFFEF8C091
:1046800000000000000000000000000000FFFF002C
:1046900000000000000000000000000000FFFFFC20
:1046A000FFFFFFFFFFFFFFFFFFFFFFFFFFFFFFFF1A
:1046B000FFFFFFFFFFFFFFFFFFFFFF0F037F7F1FD6
:1046C0000703C0C0F8F1C0C041071E3860C08000B9
:1046D000C0E03E1A0F071E7ED6DE9E9C95BDEDC93A
:1046E000797B63676F7F7FFFFFFFFFFFFFFFFFFFA8
:1046F000FFFFFFFFFFFFFFFFFFFFFFFFFFFFFFFFCA
:1047000000000000000000000000000000FFFF00AB
:1047100000000000000000000000000000000F0783
:10472000FFFFFFFFFFFFFFFFFFFFFFFFFFFFFFFF99
:10473000FF831B8999D1C1073FFFFFF8800000006C
:104740000000000000030300000000000001FFFE65
:10475000070000000000000000000001010100004F
:1047600000000000000000FFFFFFFFFFFFFFFFFF52
:10477000FFFFFFFFFFFFFFFFFFFFFFFFFFFFFF1F29
:1047800000000000000000000000000000FFFF002B
:1047900000C020C020C00020E02000C02020400039
:1047A000C0233F4F071F7FFFFFFFFFFFFFFFFFFFFC
:1047B000FFFFFEFEFEFEFEC600000103030706002B
:1047C00000000000000000008080C060381C070767
:1047D0001E3860C0C08080000000000000000000A3
:1047E000000080E0F0FCFFFFFFFFFFFFFFFFFFFF87
:1047F000FFFFFFFFFFFFFFFFFFFF7F3FEF03000013
:10480000E000C02020C000E00000E00000FFFF80CA
:10481000808F8087808F80888F8880848989868038
:1048200084898986808080C0E0B1998D8783879F45
:10483000FFFFBF9F8F9FBFFFAFD6AAD6AAD6AAD62B
:10484000AAD6AAD6AAFE83838180808080808080B9
:104850008080808080818183838286848C8CE8F84C
:10486000FEFFFFFFFFFFFFFFFFFFFFFFBFBFBF9F79
:104870009FBFEFDFFFE7C3838180808080818E81CF
:1048800080808788888780878888878080FF00006D
:104890006800000476005401F7FD000175191A0C38
:1048A0006A231B1C1F207274433B4138393A6B6CDE
:1048B000376F06246D6E7000830000000008000052
:1048C0000001001832000500000020410000D24223
:1048D000295C0F3E9A99993E3333733F295C0F3E12
:1048E000555555555555C53F7D6FEB0312D6D4BF71
:1048F0005544880E55C1C93F3B8F68B52882A4BF77
:1049000088B20175E0EF493F09F7FD0DE13D023F37
:104910004B2D8A1C273A03C0C88A599CE52A0040BF
:1049200059018D1B6C06E6BF82922EB1C5B8B33F0C
:104930004FBB610567ACDD3F182D4454FB21E93FB7
:104940009BF681D20B73EF3F182D4454FB21F93FA6
:10495000E2652F227F2B7A3C075C143326A6813C2C
:10496000BDCBF07A8807703C075C143326A6913CD7
:10497000C4EB98999999C9BF711623FEC671BCBF43
:104980006D9A74AFF2B0B3BF9AFDDE522DDEADBFAB
:104990002F6C6A2C44B4A2BF0D5555555555D53FC3
:1049A000FF8300922449C23F6E204CC5CD45B73FDE
:1049B000513DD0A0660DB13FEB0D76244B7BA93F56
:1049C00011DA22E33AAD903F000000000000000041
:1049D000424C452000000000322E34470000000009
:1049E000004A000800000020780100008E0900083D
:1049F0005C4A00087801002018050000B42B00086C
:104A0000312D010068010300F4010C00D049062E8D
:104A100008D8490008021920D37042556666663FDF
:104A2000950AD7A33B496F12833AA69B443B072ABA
:104A30003F6F12033B01B3803F0B21803F9C480036
:104A400008904800080527B8480008D3803F42FF77
:0C4A500042FF82015202033E02010000FE
:0400000508000101ED
:00000001FF
